S01D00004B6579706164446973706C6179546F50776D4F75742E73726563A4
S113000062C000007EC000007CC000007AC0000016
S113001078C0000076C0000074C0000072C0000008
S113002070C000006EC000006CC000006AC0000018
S113003068C0000066C0000064C0000062C0000028
S113004060C000005EC000005CC000005AC0000038
S113005058C0000056C0000054C0000052C0000048
S113006050C000004EC000004CC000004AC0000058
S113007048C0000046C0000044C0000042C0000068
S113008040C000003EC000003CC00000B702A9020E
S1130090410341034103410341030303D902C50260
S11300A04103BE02B002DD02E40241034103410305
S11300B0410341034103410341034103F7022E037A
S11300C04103EB02380311241FBECFEFD0E4DEBF9F
S11300D0CDBF11E0A0E0B1E0EAEEF6E100E00BBF35
S11300E002C007900D92AA3BB107D9F721E0AAEB11
S11300F0B1E001C01D92A83CB207E1F71ED70C94F1
S1130100730B7ECF9C01E1E8F0E090811082309384
S11301108900209388008081892B808308959C0125
S1130120E1E8F0E09081108230938B0020938A0004
S11301308081892B808308952F923F924F925F9202
S11301406F927F928F929F92AF92BF92CF92DF92E3
S1130150EF92FF920F931F93CF93DF9300D0CDB70D
S1130160DEB75C016B014A0119821A8281B1887F72
S113017081B982B1876082B987B18C7387B988B13C
S1130180836C88B9612CC2C021B1212C312C21018E
S113019023948501060D111DD201C101F8010080CF
S11301A004C0880F991FAA1FBB1F0A94D2F7822B81
S11301B081B992B1EE24E394F12C9701008002C03E
S11301C0220F331F0A94E2F7822F8095892382B984
S11301D081E090E00E94170986B1837C8A8381E0E4
S11301E090E00E94170982B1F801008002C0EE0C71
S11301F0FF1C0A94E2F7E82AE2B881B1B201A10136
S1130200008004C0440F551F661F771F0A94D2F75D
S1130210242E2094282221B88A81833C09F475C0B5
S113022087B18C7387B988B1836C88B981B1887FB1
S113023081B982B1876082B981E090E0F8D7712CEE
S113024054C027B1E72CF12C86010E0D1F1D81E04F
S113025090E0A0E0B0E0F801008004C0880F991F8E
S1130260AA1FBB1F0A94D2F7822B87B928B181E059
S113027090E0008002C0880F991F0A94E2F78095ED
S1130280822388B981E090E0D2D780B187708983D6
S11302908981873061F0F701EE0FFF1FEE0EFF1E1C
S11302A08E0C9F1CF401E60DF11D808134C027B132
S11302B081E090E0A0E0B0E0F801008004C0880F85
S11302C0991FAA1FBB1F0A94D2F78095822387B96E
S11302D028B181E090E0008002C0880F991F0A9441
S11302E0E2F78095822388B97394F3E0F71508F058
S11302F0A8CF81B1887F81B982B1876082B987B183
S11303008C7387B988B1836C88B9639482E086154D
S113031008F03ACF80E00F900F90DF91CF911F91BA
S11303200F91FF90EF90DF90CF90BF90AF909F9090
S11303308F907F906F905F904F903F902F90089593
S11303409BB1937F9BB99BB190649BB995B115B850
S113035095B1892B85B98BB18F7B8BB981E090E006
S113036072C70895EF92FF920F931F93CF937C016E
S11303708B018BB1837B8BB984B18FEF84B9C0E0DF
S113038005C0DEDF8AE090E05ED7CF5FF701EC0FB7
S1130390F11D80818111F5CF20E00BC0822F90E008
S11303A0F801E80FF91F3081FC01EC53FE4F308354
S11303B02F5F243098F38AE090E039D7CF911F91D2
S11303C00F91FF90EF9008959BB1977F9BB99BB1DC
S11303D094609BB99BB190649BB995B115B895B1E4
S11303E0892B85B98BB18F7B8BB981E090E02BC7CA
S11303F00895843020F083E08093BB0102C0809391
S1130400BB01643120F083E18093BA0102C06093A0
S1130410BA01E091BB01F0E0EC53FE4F9081809172
S1130420BA01890F80688CCF0895CF93C82F80912B
S1130430BA01843180F08091BB01843038F081E0CE
S11304407FDF1092BA011092BB0105C01092BA016D
S11304508F5F8093BB016091BA018091BB01C9DFBA
S11304608C2FB2DF8091BA018F5F8093BA01CF9154
S113047008951F93CF93DF93182FEB018091BA0156
S1130480843180F08091BB01843038F081E058DF02
S11304901092BA011092BB0105C01092BA018F5F8D
S11304A08093BB016091BA018091BB01A2DF812FCF
S11304B08BDFCE01BCD68091BA018F5F8093BA01E5
S11304C0DF91CF911F910895FF920F931F93CF93C4
S11304D0DF93F82ED62FC42F8901443180F0643085
S11304E038F081E02DDF1092BA011092BB0107C0F1
S11304F01092BA018091BB018F5F8093BB016C2F76
S11305008D2F77DF8F2D60DF8091BA018F5F80930D
S1130510BA01C8018CD6DF91CF911F910F91FF9042
S11305200895CF93DF93EC0102C021967EDF88818A
S11305308111FBCFDF91CF910895CF9390E0FC011F
S11305403197ED31F10508F09CC0EA5BFF4F0C9444
S11305505B0B1092BA011092BB0182E0F1DE91C0F4
S11305601092BA0160E08091BB0143DF8AC010920F
S1130570BA011092BB0181E0E3DE83C01092BA019C
S11305801092BB0181E0DCDE7CC01092BA01809144
S1130590BB01833020F48F5F8093BB0104C01092B1
S11305A0BB0181E0CDDE6091BA018091BB0121DF06
S11305B068C084E991E0B5DF64C01092BB0160912A
S11305C0BA0180E016DF5DC083E08093BB016091D7
S11305D0BA010FDF56C08091BB01882309F451C0D2
S11305E081508093BB016091BA0103DF4AC08091BE
S11305F0BB01833008F045C08F5F8093BB016091DD
S1130600BA01F7DE3EC08091BA01882379F08150A7
S11306108093BA0180E194DE80E207DF8091BA0121
S113062081508093BA0180E18BDE2BC08091BB01A5
S1130630882339F1C3E1C093BA0181508093BB018F
S113064063E1D7DE80E2F1DEC093BA018091BB01A1
S113065081508093BB0180E173DE13C08091BA01A5
S1130660833178F48F5F8093BA0184E169DE09C035
S11306708091BA01882329F081508093BA0180E1E6
S11306805FDECF910895CF93DF93EB01803210F4B6
S113069054DF01C0CADECE01CAD5DF91CF910895DF
S11306A00F931F93CF93DF93EC018B0103C021962B
S11306B0B801E9DF88818111FACFDF91CF911F91D1
S11306C00F9108950F931F93CF93DF93EC01862F1F
S11306D08901642F8EDE03C02196B801D4DF88819E
S11306E08111FACFDF91CF911F910F910895EF926D
S11306F0FF921F93CF93DF9300D01F92CDB7DEB745
S1130700762F790139E2839F312D112432953F7080
S11307109DEC899F212D1124269526952695299FA8
S1130720912D1124969596959695990F592F550FBD
S1130730550F950F522F591B952F220F522F550FDE
S1130740550F250F582F521BE0E2F0E2FA83E9839C
S1130750332329F0305D905D39839A8304C0992353
S113076011F0905D9A83505D5B83642F872F41DE87
S113077010E00AC0E1E0F0E0EC0FFD1FE10FF11D15
S1130780B701808176DE1F5F1330A0F30F900F90C6
S11307900F90DF91CF911F91FF90EF9008955F929A
S11307A06F927F928F929F92AF92BF92CF92DF927D
S11307B0EF92FF920F931F93CF93DF9300D000D05B
S11307C01F92CDB7DEB7FC01562F79019C013295FB
S11307D022952F7023273F702327A7E4B3E074D713
S11307E04C019694879496948794969487945F0189
S11307F0B694A794B694A794B694A7949501A5EC3F
S1130800B0E262D76C01D694C794D694C794D694B8
S1130810C794D694C7949601ADECBCEC55D78C0123
S1130820169507951695079516950795C801880F8F
S1130830991F000F111F000F111F000F111F080F28
S1130840191FC601801B910B8C0128EE33E0C29E58
S1130850C001C39E900DD29E900D11249F01281BB0
S1130860390B3695279536952795ABE7B4E12CD708
S11308705C01B694A7949F013695279536952795E4
S113088023D79C013695279564E6629FC001639F38
S1130890900D11249F01281B390BADECBCEC14D72F
S11308A06C01D694C794D694C794D694C7949F01E8
S11308B00BD79695879596958795969587959C01E0
S11308C0220F331F880F991F880F991F880F991FB4
S11308D0820F931F2E2F281B822F95E0E6E5F1E06F
S11308E0DE01119601900D929A95E1F7882061F04E
S11308F090E3980D005D30E33A0D20E32C0D9983CD
S11309000A833B832C831AC0002351F090E3900F99
S113091030E33A0D20E32C0D9A833B832C830EC0E5
S1130920AA2039F090E39A0D20E32C0D9B832C83AD
S113093005C0CC2019F090E39C0D9C83E0E3E80F04
S1130940ED83642F852F55DD10E00AC0E1E0F0E06F
S1130950EC0FFD1FE10FF11DB70180818ADD1F5FE0
S11309601530A0F30F900F900F900F900F90DF9120
S1130970CF911F910F91FF90EF90DF90CF90BF9098
S1130980AF909F908F907F906F905F900895CF93DA
S113099081E0D3DD8CE0D4DCC0E0C03530F460E12C
S11309A077E28DE266DDCF5FF8CF65E081E021DD9F
S11309B060E177E286E691E073DE68E082E019DDCB
S11309C060E177E28CE691E06BDE64E083E011DDC8
S11309D060E177E286E791E063DE8AE090E042D46A
S11309E020E137E240E060E084E891E06BDE20E162
S11309F037E240E063E084E891E064DE20E137E23E
S1130A0040E061E084E891E05DDE20E137E240E02F
S1130A1062E084E891E056DEC0E0C43068F425E189
S1130A20C29FC001112420E137E240E06C2F8050C6
S1130A309F4F48DECF5FF1CFCF9108953F924F9201
S1130A405F926F927F928F929F92AF92BF92CF925A
S1130A50DF92EF92FF920F931F93CF93DF9300D017
S1130A6000D0CDB7DEB701E810E0F8011082E4E66B
S1130A70F0E08081877F80838BB18F7E8BB98AB1D0
S1130A8080618AB98BB18F7D8BB98AB180628AB952
S1130A90E2ECF1E080818E7F808380818D7F808392
S1130AA0808184608083E1ECF1E080818E7F8083AB
S1130AB0808182608083808184608083808188607B
S1130AC08083A0ECB1E08C918C7F82608C938C91BC
S1130AD0837F88608C938C918F7E8C938C918F7D97
S1130AE08C9383EC91E0FC013080E89430F8308200
S1130AF03080E89431F830823080E89432F83082E3
S1130B001092870010928600308030FACC24C0F80E
S1130B10D12CCC0CDD1CD080D1FA662760F970E0B2
S1130B20660F771F660F771F808182FB882780F905
S1130B306C29682B60936F008C9184FBEE24E0F8A1
S1130B40F12CF694FE2CEE24F794E7948C9185FB1B
S1130B50442740F950E0002456954795079456954C
S1130B6047950794542F402DE42AE09282008C91FB
S1130B708370F0E48F9FC00111244C9146954695F3
S1130B80437020E1429FA0011124842BA0E8B0E02F
S1130B908C93E1ECF1E0808180FBAA24A0F8B12CD5
S1130BA0808181FB222720F930E0220F331F8C91B2
S1130BB02A293B29282B2C93808182FB882480F8C6
S1130BC0912C880C991C880C991C880C991C808188
S1130BD083FB662460F8712C660C771C660C771C0A
S1130BE0660C771C660C771C6828F801608280E02C
S1130BF090E088DA80E090E092DAE2ECF1E0808143
S1130C00817089831A82808181FB442440F8512CAD
S1130C10440C551C29813A8124293529808182FB81
S1130C20882780F98B831C828B819C81880F991F74
S1130C30880F991FF80140812901482A592A442A1A
S1130C4040820F900F900F900F90DF91CF911F91E2
S1130C500F91FF90EF90DF90CF90BF90AF909F9057
S1130C608F907F906F905F904F903F90089512B84F
S1130C7015B818B81BB88FEF81B984B987B98AB988
S1130C806CEA71E080EB91E06DDB81DE81B18F7104
S1130C9081B9ECE7F0E080818F7D808310927B0046
S1130CA01082EAE7F0E0808180688083C7CE0895EF
S1130CB0682F853608F064E68091540190915501BF
S1130CC070E027D39093BF018093BE018091BE0151
S1130CD09091BF0117CA0895682F853608F064E61D
S1130CE0809154019091550170E013D39093BD010C
S1130CF08093BC018091BC019091BD0110CA0895FC
S1130D00EF92FF920F931F93CF93DF939C01E1E83F
S1130D10F0E09081987F9083283883E13807C8F009
S1130D20E2ECF1E080818160808380818D7F80832B
S1130D3080818B7F80832F5F3F4F40E050E060E0F5
S1130D407BE187EB90E095D43093550120935401D7
S1130D5082C0283E83E03807F8F0E2ECF1E08081BD
S1130D608E7F808380818260808380818B7F80837B
S1130D702F5F3F4F220F331F220F331F220F331FCA
S1130D8040E050E060E07BE187EB90E072D4309388
S1130D905501209354015FC0283C310510F1E2EC69
S1130DA0F1E08081816080838081826080838081A2
S1130DB08B7F80832F5F3F4F0024369527950794C0
S1130DC0369527950794322F202D40E050E060E0BF
S1130DD07BE187EB90E04DD430935501209354018F
S1130DE03AC022333105D8F0E2ECF1E080818E7F05
S1130DF0808380818D7F80838081846080832F5F66
S1130E003F4F322F222740E050E060E07BE187EB48
S1130E1090E02FD430935501209354011CC0E2EC90
S1130E20F1E080818160808380818D7F80838081F7
S1130E30846080832F5F3F4F322F2227330F330F7D
S1130E4040E050E060E07BE187EB90E012D4309327
S1130E505501209354018091540190915501909330
S1130E60870080938600E2ECF1E08081082F017016
S1130E7010E0808181FBEE24E0F8F12CC701880F9B
S1130E80991FA801482B592B808182FB882780F960
S1130E90C82F80E0D82F9E01220F331F220F331F4B
S1130EA0E1E8F0E06081CA01822B932B862B8083DA
S1130EB04091BE015091BF01609154017091550160
S1130EC080E090E0E1D1F4DE4091BC015091BD019D
S1130ED0609154017091550180E090E0D5D1FCDE21
S1130EE04091BE015091BF01609154017091550130
S1130EF080E090E0C9D120E533EC4EE062E0F7DB1E
S1130F008AE090E0A0D14091BC015091BD01609174
S1130F1054017091550180E090E0B6D120E533ECA6
S1130F204EE063E0E4DB6AE081E063DADF91CF91D5
S1130F301F910F91FF90EF900895CF93DF93CDB75A
S1130F40DEB72B970FB6F894DEBF0FBECDBFFE0100
S1130F50319685E0DF011D928A95E9F71E821F8292
S1130F60188619861A861B8682DE6AE081E041DAD9
S1130F708FE0E6D9E12CC12CD12CB12CA12CF12C81
S1130F8000E049E951E065EA71E089EA91E0D4D8EA
S1130F90182F882309F446C1081709F443C1833282
S1130FA009F470C08A3209F0ECC0F1102EC04981F6
S1130FB020E137E2429FC001439F900D11244A81F2
S1130FC028EE33E0429F6001439FD00C11248C0D26
S1130FD09D1D2B816C01B4E62B9FC00CD11C1124E8
S1130FE09C81892F90E09C01220F331F880F991F49
S1130FF0880F991F880F991F820F931F8C0D9D1DB9
S11310002D816C01C20ED11C1EC031E0F3120EC042
S11310109E81AF80AA0C8A2D880F880FA80E84E6C3
S1131020989FA00C11248885A80E0DC09985BA84B8
S1131030BB0C8B2D880F880FB80EA4E69A9FB00CBA
S113104011248B85B80EF394B2E0BF1508F4F12C8B
S1131050C60156DE8A2D2CDE8B2D3EDEF11005C036
S11310606AE081E0C6D9E12CDDC031E0F31205C0AD
S11310706EE082E0BED9E12CD5C06EE083E0B9D940
S1131080E12CD0C081E0F81609F441C0F81628F02C
S1131090A2E0FA1609F458C0C3C0498120E137E23E
S11310A0429FC001439F900D11244A8128EE33E0F2
S11310B0429F6001439FD00C11248C0D9D1D2B81F8
S11310C06C01B4E62B9FC00CD11C11249C81892F88
S11310D090E09C01220F331F880F991F880F991FDE
S11310E0880F991F820F931F8C0D9D1D2D816C01FC
S11310F0C20ED11C20E533EC4AE061E0C6014FDBAF
S11311008AE090E0A0D0C601FBDDE12C8BC09E817B
S1131110AF80AA0C8A2D880F880FA80E34E6939FFF
S1131120A00C11248885A80E8A2DC2DD20E533EC9D
S11311304EE062E08A2DDBDA6EE082E05AD98AE082
S113114090E081D0E12C6EC09985BA84BB0C8B2DC4
S1131150880F880FB80E84E6989FB00C11248B85F5
S1131160B80E8B2DB9DD20E533EC4EE063E08B2D1A
S1131170BEDA6EE083E03DD98AE090E064D0E12CF1
S113118051C0A1E0FA16E9F0FA1620F0B2E0FB161D
S113119079F144C034E03E1518F46894EE24E2F882
S11311A020E137E24AE04E0D61E0812F8DD9E1E084
S11311B0F0E0EC0FFD1FEE0DF11D80ED810F80833B
S11311C02DC082E08E1518F46894EE24E1F820E135
S11311D037E24EE04E0D62E0812F76D9E6E0F0E092
S11311E0EC0FFD1FEE0DF11D80ED810F808316C005
S11311F0A2E0AE1518F46894EE24E1F820E137E299
S11312004EE04E0D63E0812F5FD9E9E0F0E0EC0F92
S1131210FD1FEE0DF11D80ED810F8083E39402C06C
S1131220E12CF12C84E690E00ED0012FAACE20E030
S113123030E005C044E04A95F1F72F5F3F4F28178F
S11312403907C0F3089520E030E008C0E7EBFBE085
S11312503197F1F700C000002F5F3F4F281739077F
S1131260A8F3089520E030E00BC04FE759EA63E0AB
S1131270415050406040E1F700C000002F5F3F4FF5
S11312802817390790F30895CF92DF92EF92FF92D7
S11312900F931F93CF93DF938C01EB0168177907AA
S11312A030F4C827D9270C271D27C027D1274C176E
S11312B05D0708F50C171D0701F104171507F8F46D
S11312C0BA01601B710B80E090E0E2D06B017C01FD
S11312D0BE01601B710B80E090E0DAD09B01AC0191
S11312E0C701B60141D020E030E048EC52E45ED1C1
S11312F0A3D0862F05C084E603C084E601C080E045
S1131300DF91CF911F910F91FF90EF90DF90CF90DD
S11313100895CF92DF92EF92FF92CF93DF93EC0187
S113132064367105C8F461157105A1F080E090E0A0
S1131330AFD020E030E048EC52E416D06B017C01E1
S1131340BE0180E090E0A4D0A70196012FD174D013
S1131350EB0102C0C0E0D0E0CE01DF91CF91FF905D
S1131360EF90DF90CF9008950CD0E6C0DED040F02F
S1131370D5D030F021F45F3F19F0C7C0511110C12E
S1131380CAC0EBD098F39923C9F35523B1F3951B45
S1131390550BBB27AA2762177307840738F09F5F92
S11313A05F4F220F331F441FAA1FA9F333D00E2E01
S11313B03AF0E0E830D091505040E695001CCAF76E
S11313C029D0FE2F27D0660F771F881FBB1F261733
S11313D037074807AB07B0E809F0BB0B802DBF0106
S11313E0FF2793585F4F2AF09E3F510568F08DC048
S11313F0D7C05F3FECF3983EDCF38695779567950D
S1131400B795F7959F5FC9F7880F911D96958795B6
S113141097F90895E1E0660F771F881FBB1F6217D5
S113142073078407BA0720F0621B730B840BBA0B93
S1131430EE1F88F7E095089598D088F09F5790F0B4
S1131440B92F9927B751A0F0D1F0660F771F881FE5
S1131450991F1AF0BA95C9F712C0B13081F09FD024
S1131460B1E008959CC0672F782F8827B85F39F0C2
S1131470B93FCCF3869577956795B395D9F73EF444
S113148090958095709561957F4F8F4F9F4F0895EC
S1131490E89409C097FB3EF490958095709561950A
S11314A07F4F8F4F9F4F9923A9F0F92F96E9BB27C0
S11314B09395F695879577956795B795F111F8CF3C
S11314C0FAF4BB0F11F460FF1BC06F5F7F4F8F4FA7
S11314D09F4F16C0882311F096E911C0772321F09D
S11314E09EE8872F762F05C0662371F096E8862F35
S11314F070E060E02AF09A95660F771F881FDAF78C
S1131500880F9695879597F9089597F99F6780E8CE
S113151070E060E008959FEF80EC089500240A9441
S11315201616170618060906089500240A941216BA
S11315301306140605060895092E0394000C11F4ED
S1131540882352F0BB0F40F4BF2B11F460FF04C09A
S11315506F5F7F4F8F4F9F4F089557FD9058440FF3
S1131560551F59F05F3F71F04795880F97FB991FFE
S113157061F09F3F79F087950895121613061406BB
S1131580551FF2CF4695F1DF08C016161706180648
S1131590991FF1CF86957105610508940895E89423
S11315A0BB2766277727CB0197F908950BD0C4CFC3
S11315B0B5DF28F0BADF18F0952309F0A6CFABCF3A
S11315C01124EECFCADFA0F3959FD1F3950F50E01D
S11315D0551F629FF001729FBB27F00DB11D639FE1
S11315E0AA27F00DB11DAA1F649F6627B00DA11D87
S11315F0661F829F2227B00DA11D621F739FB00D2D
S1131600A11D621F839FA00D611D221F749F33279C
S1131610A00D611D231F849F600D211D822F762F35
S11316206A2F11249F5750408AF0E1F088234AF032
S1131630EE0FFF1FBB1F661F771F881F915050407E
S1131640A9F79E3F510570F060CFAACF5F3FECF33E
S1131650983EDCF3869577956795B795F795E7956A
S11316609F5FC1F7FE2B880F911D9695879597F97B
S11316700895A1E21A2EAA1BBB1BFD010DC0AA1FCF
S1131680BB1FEE1FFF1FA217B307E407F50720F0E7
S1131690A21BB30BE40BF50B661F771F881F991F62
S11316A01A9469F760957095809590959B01AC01AB
S11316B0BD01CF010895EE0FFF1F0024001C0BBED7
S11316C00790F691E02D0994A29FB001B39FC00149
S11316D0A39F700D811D1124911DB29F700D811D5A
S10D16E01124911D0895F894FFCF22
S11316EA466173743A202A3D4E65787420233D4539
S11316FA6E746572004672657175656E63793A3007
S113170A30303030487A0000000044757479204340
S113171A79636C652031413A303030250000004449
S113172A757479204379636C652031423A303030DC
S113173A25000000D0012020202020003030303045
S113174A20303030300050574D20310047656E65E7
S113175A7261746F72002D56657273696F6E2031EF
S113176A2E302D0020202020202020202020202060
S113177A20202020202020200031323334353637EF
S113178A38392A30230001060700010200401454A4
S10D179A3030303C0801060C00005A
S9030000FC
